{
  "contractName": "Election",
  "abi": [
    {
      "constant": true,
      "inputs": [],
      "name": "candidatesCount",
      "outputs": [
        {
          "name": "",
          "type": "uint256"
        }
      ],
      "payable": false,
      "stateMutability": "view",
      "type": "function"
    },
    {
      "constant": true,
      "inputs": [
        {
          "name": "",
          "type": "uint256"
        }
      ],
      "name": "candidates",
      "outputs": [
        {
          "name": "id",
          "type": "uint256"
        },
        {
          "name": "name",
          "type": "string"
        },
        {
          "name": "voteCount",
          "type": "uint256"
        }
      ],
      "payable": false,
      "stateMutability": "view",
      "type": "function"
    },
    {
      "constant": true,
      "inputs": [
        {
          "name": "",
          "type": "uint256"
        }
      ],
      "name": "allVoters",
      "outputs": [
        {
          "name": "",
          "type": "string"
        }
      ],
      "payable": false,
      "stateMutability": "view",
      "type": "function"
    },
    {
      "constant": true,
      "inputs": [],
      "name": "message",
      "outputs": [
        {
          "name": "",
          "type": "string"
        }
      ],
      "payable": false,
      "stateMutability": "view",
      "type": "function"
    },
    {
      "inputs": [],
      "payable": false,
      "stateMutability": "nonpayable",
      "type": "constructor"
    },
    {
      "anonymous": false,
      "inputs": [
        {
          "indexed": true,
          "name": "voter",
          "type": "string"
        }
      ],
      "name": "votedEvent",
      "type": "event"
    },
    {
      "constant": false,
      "inputs": [
        {
          "name": "_voter",
          "type": "string"
        }
      ],
      "name": "initializeVoters",
      "outputs": [],
      "payable": false,
      "stateMutability": "nonpayable",
      "type": "function"
    },
    {
      "constant": true,
      "inputs": [
        {
          "name": "_voterId",
          "type": "string"
        }
      ],
      "name": "voterStatus",
      "outputs": [
        {
          "name": "",
          "type": "uint256"
        }
      ],
      "payable": false,
      "stateMutability": "view",
      "type": "function"
    },
    {
      "constant": false,
      "inputs": [
        {
          "name": "_candidateId",
          "type": "uint256"
        },
        {
          "name": "_voterId",
          "type": "string"
        }
      ],
      "name": "vote",
      "outputs": [
        {
          "name": "messageVar",
          "type": "string"
        },
        {
          "name": "",
          "type": "uint256"
        },
        {
          "name": "voterIdVar",
          "type": "string"
        }
      ],
      "payable": false,
      "stateMutability": "nonpayable",
      "type": "function"
    }
  ],
  "bytecode": "0x60806040523480156200001157600080fd5b50620000616040805190810160405280600581526020017f527568616c000000000000000000000000000000000000000000000000000000815250620000b6640100000000026401000000009004565b620000b06040805190810160405280600481526020017f4d69646f00000000000000000000000000000000000000000000000000000000815250620000b6640100000000026401000000009004565b620001e4565b600360008154809291906001019190505550606060405190810160405280600354815260200182815260200160008152506001600060035481526020019081526020016000206000820151816000015560208201518160010190805190602001906200012492919062000135565b506040820151816002015590505050565b828054600181600116156101000203166002900490600052602060002090601f016020900481019282601f106200017857805160ff1916838001178555620001a9565b82800160010185558215620001a9579182015b82811115620001a85782518255916020019190600101906200018b565b5b509050620001b89190620001bc565b5090565b620001e191905b80821115620001dd576000816000905550600101620001c3565b5090565b90565b61114f80620001f46000396000f3fe608060405260043610610083576000357c0100000000000000000000000000000000000000000000000000000000900463ffffffff16806324108475146100885780632d35a8a2146102465780633477ee2e1461027157806367306c721461033357806385650674146103fb578063881053c4146104af578063e21f37ce1461058b575b600080fd5b34801561009457600080fd5b50610158600480360360408110156100ab57600080fd5b8101908080359060200190929190803590602001906401000000008111156100d257600080fd5b8201836020820111156100e457600080fd5b8035906020019184600183028401116401000000008311171561010657600080fd5b91908080601f016020809104026020016040519081016040528093929190818152602001838380828437600081840152601f19601f82011690508083019250505050505050919291929050505061061b565b604051808060200184815260200180602001838103835286818151815260200191508051906020019080838360005b838110156101a2578082015181840152602081019050610187565b50505050905090810190601f1680156101cf5780820380516001836020036101000a031916815260200191505b50838103825284818151815260200191508051906020019080838360005b838110156102085780820151818401526020810190506101ed565b50505050905090810190601f1680156102355780820380516001836020036101000a031916815260200191505b509550505050505060405180910390f35b34801561025257600080fd5b5061025b6108f5565b6040518082815260200191505060405180910390f35b34801561027d57600080fd5b506102aa6004803603602081101561029457600080fd5b81019080803590602001909291905050506108fb565b6040518084815260200180602001838152602001828103825284818151815260200191508051906020019080838360005b838110156102f65780820151818401526020810190506102db565b50505050905090810190601f1680156103235780820380516001836020036101000a031916815260200191505b5094505050505060405180910390f35b34801561033f57600080fd5b506103f96004803603602081101561035657600080fd5b810190808035906020019064010000000081111561037357600080fd5b82018360208201111561038557600080fd5b803590602001918460018302840111640100000000831117156103a757600080fd5b91908080601f016020809104026020016040519081016040528093929190818152602001838380828437600081840152601f19601f8201169050808301925050505050505091929192905050506109bd565b005b34801561040757600080fd5b506104346004803603602081101561041e57600080fd5b8101908080359060200190929190505050610bff565b6040518080602001828103825283818151815260200191508051906020019080838360005b83811015610474578082015181840152602081019050610459565b50505050905090810190601f1680156104a15780820380516001836020036101000a031916815260200191505b509250505060405180910390f35b3480156104bb57600080fd5b50610575600480360360208110156104d257600080fd5b81019080803590602001906401000000008111156104ef57600080fd5b82018360208201111561050157600080fd5b8035906020019184600183028401116401000000008311171561052357600080fd5b91908080601f016020809104026020016040519081016040528093929190818152602001838380828437600081840152601f19601f820116905080830192505050505050509192919290505050610cba565b6040518082815260200191505060405180910390f35b34801561059757600080fd5b506105a0610e8c565b6040518080602001828103825283818151815260200191508051906020019080838360005b838110156105e05780820151818401526020810190506105c5565b50505050905090810190601f16801561060d5780820380516001836020036101000a031916815260200191505b509250505060405180910390f35b6060600060606000846040518082805190602001908083835b6020831015156106595780518252602082019150602081019050602083039250610634565b6001836020036101000a038019825116818451168082178552505050505050905001915050908152602001604051809103902060009054906101000a900460ff161515156106a657600080fd5b6000851180156106b857506003548511155b15156106c357600080fd5b60016000856040518082805190602001908083835b6020831015156106fd57805182526020820191506020810190506020830392506106d8565b6001836020036101000a038019825116818451168082178552505050505050905001915050908152602001604051809103902060006101000a81548160ff0219169083151502179055506001600086815260200190815260200160002060020160008154809291906001019190505550836040518082805190602001908083835b6020831015156107a3578051825260208201915060208101905060208303925061077e565b6001836020036101000a03801982511681845116808217855250505050505090500191505060405180910390207fc67ac03f9480999b27a37e263a5df747fef748d1edb0b64684da8fb07d21180e60405160405180910390a26040805190810160405280601281526020017f566f746564205375636365737366756c6c79000000000000000000000000000081525060049080519060200190610847929190610f2a565b5060048585828054600181600116156101000203166002900480601f0160208091040260200160405190810160405280929190818152602001828054600181600116156101000203166002900480156108e15780601f106108b6576101008083540402835291602001916108e1565b820191906000526020600020905b8154815290600101906020018083116108c457829003601f168201915b505050505092509250925092509250925092565b60035481565b6001602052806000526040600020600091509050806000015490806001018054600181600116156101000203166002900480601f0160208091040260200160405190810160405280929190818152602001828054600181600116156101000203166002900480156109ad5780601f10610982576101008083540402835291602001916109ad565b820191906000526020600020905b81548152906001019060200180831161099057829003601f168201915b5050505050908060020154905083565b60c0604051908101604052806040805190810160405280600881526020017f4e4730363738343800000000000000000000000000000000000000000000000081525081526020016040805190810160405280600881526020017f414230363738343800000000000000000000000000000000000000000000000081525081526020016040805190810160405280600881526020017f414d30363738343800000000000000000000000000000000000000000000000081525081526020016040805190810160405280600881526020017f4e5030363738343800000000000000000000000000000000000000000000000081525081526020016040805190810160405280600881526020017f434330363738343800000000000000000000000000000000000000000000000081525081526020016040805190810160405280600881526020017f44443036373834380000000000000000000000000000000000000000000000008152508152506002906006610b39929190610faa565b506002819080600181540180825580915050906001820390600052602060002001600090919290919091509080519060200190610b77929190610f2a565b5050600080826040518082805190602001908083835b602083101515610bb25780518252602082019150602081019050602083039250610b8d565b6001836020036101000a038019825116818451168082178552505050505050905001915050908152602001604051809103902060006101000a81548160ff02191690831515021790555050565b600281815481101515610c0e57fe5b906000526020600020016000915090508054600181600116156101000203166002900480601f016020809104026020016040519081016040528092919081815260200182805460018160011615610100020316600290048015610cb25780601f10610c8757610100808354040283529160200191610cb2565b820191906000526020600020905b815481529060010190602001808311610c9557829003601f168201915b505050505081565b600080600090505b600280549050811015610e8157826040516020018082805190602001908083835b602083101515610d085780518252602082019150602081019050602083039250610ce3565b6001836020036101000a03801982511681845116808217855250505050505090500191505060405160208183030381529060405280519060200120600282815481101515610d5257fe5b906000526020600020016040516020018082805460018160011615610100020316600290048015610dba5780601f10610d98576101008083540402835291820191610dba565b820191906000526020600020905b815481529060010190602001808311610da6575b5050915050604051602081830303815290604052805190602001201415610e7457600115156000846040518082805190602001908083835b602083101515610e175780518252602082019150602081019050602083039250610df2565b6001836020036101000a038019825116818451168082178552505050505050905001915050908152602001604051809103902060009054906101000a900460ff1615151415610e6a576000915050610e87565b6001915050610e87565b8080600101915050610cc2565b50600290505b919050565b60048054600181600116156101000203166002900480601f016020809104026020016040519081016040528092919081815260200182805460018160011615610100020316600290048015610f225780601f10610ef757610100808354040283529160200191610f22565b820191906000526020600020905b815481529060010190602001808311610f0557829003601f168201915b505050505081565b828054600181600116156101000203166002900490600052602060002090601f016020900481019282601f10610f6b57805160ff1916838001178555610f99565b82800160010185558215610f99579182015b82811115610f98578251825591602001919060010190610f7d565b5b509050610fa6919061100a565b5090565b828054828255906000526020600020908101928215610ff9579160200282015b82811115610ff8578251829080519060200190610fe892919061102f565b5091602001919060010190610fca565b5b50905061100691906110af565b5090565b61102c91905b80821115611028576000816000905550600101611010565b5090565b90565b828054600181600116156101000203166002900490600052602060002090601f016020900481019282601f1061107057805160ff191683800117855561109e565b8280016001018555821561109e579182015b8281111561109d578251825591602001919060010190611082565b5b5090506110ab919061100a565b5090565b6110d891905b808211156110d457600081816110cb91906110db565b506001016110b5565b5090565b90565b50805460018160011615610100020316600290046000825580601f106111015750611120565b601f01602090049060005260206000209081019061111f919061100a565b5b5056fea165627a7a723058207493329a7443085d70e1630f323fc7db73068df99c484ecf69036e78d04e86ac0029",
  "source": "pragma solidity >=0.4.21 <0.6.0;\n\ncontract Election {\n    \n    struct Candidate {\n        uint id;\n        string name;\n        uint voteCount;\n    }\n\n    mapping(string => bool) voters;\n    mapping(uint => Candidate) public candidates;\n    string[] public allVoters;\n    \n    uint public candidatesCount;\n    string public message;\n\n    event votedEvent(\n        string indexed voter\n    );\n\n    constructor() public {\n        addCandidate(\"Ruhal\");\n        addCandidate(\"Mido\");\n        \n    }\n\n    function initializeVoters(string memory _voter) public {\n        allVoters = [\"NG067848\", \"AB067848\", \"AM067848\", \"NP067848\", \"CC067848\", \"DD067848\"];\n        allVoters.push(_voter);\n        voters[_voter] = false;\n\n    }\n\n    function voterStatus(string memory _voterId) public view returns(uint){\n      \n        for(uint x = 0; x < allVoters.length; x++){\n            if(keccak256(abi.encodePacked(allVoters[x])) == keccak256(abi.encodePacked(_voterId))){\n                if(voters[_voterId] == true){\n                    return 0;\n                }\n                else{\n                    return 1;\n                }\n\n            }\n        }\n\n        return 2;\n\n    }\n\n    function addCandidate(string memory _name) private {\n        candidatesCount++;\n        candidates[candidatesCount]= Candidate(candidatesCount, _name, 0);\n    }\n\n    function vote(uint _candidateId, string memory _voterId) public returns(string memory messageVar, uint, string memory voterIdVar) {\n        require(!voters[_voterId]);\n        require(_candidateId > 0 && _candidateId <= candidatesCount);\n\n        voters[_voterId] = true;\n        candidates[_candidateId].voteCount++;\n        emit votedEvent(_voterId);\n        message = \"Voted Successfully\";\n        return (message, _candidateId, _voterId);\n    }\n}",
  "sourcePath": "/root/Desktop/blockpro/contracts/Election.sol",
  "compiler": {
    "name": "solc",
    "version": "0.5.0+commit.1d4f565a.Emscripten.clang"
  },
  "schemaVersion": "3.0.0",
  "updatedAt": "2019-04-27T09:01:11.996Z",
  "devdoc": {
    "methods": {}
  },
  "userdoc": {
    "methods": {}
  }
}